:020000040000fa
:080000000002040000000000f2
:020000040000fa
:04000800e40200000e
:020000040000fa
:04000c00e40200000a
:020000040000fa
:04001000e402000006
:020000040000fa
:04001400e402000002
:020000040000fa
:04001800e4020000fe
:020000040000fa
:04001c00e4020000fa
:020000040000fa
:04002000e4020000f6
:020000040000fa
:04002400e4020000f2
:020000040000fa
:04002800e4020000ee
:020000040000fa
:04002c00e4020000ea
:020000040000fa
:04003000e4020000e6
:020000040000fa
:04003400e4020000e2
:020000040000fa
:04003800e4020000de
:020000040000fa
:04003c00e4020000da
:020000040000fa
:04004000e4020000d6
:020000040000fa
:04004400c8020000ee
:020000040000fa
:04004800e4020000ce
:020000040000fa
:04004c00e4020000ca
:020000040000fa
:04005000e4020000c6
:020000040000fa
:04005400e4020000c2
:020000040000fa
:04005800e4020000be
:020000040000fa
:04005c00e4020000ba
:020000040000fa
:04006000e4020000b6
:020000040000fa
:04006400e4020000b2
:020000040000fa
:04006800e4020000ae
:020000040000fa
:04006c00e4020000aa
:020000040000fa
:04007000e4020000a6
:020000040000fa
:04007400e4020000a2
:020000040000fa
:04007800e40200009e
:020000040000fa
:04007c00e40200009a
:020000040000fa
:04008000e402000096
:020000040000fa
:04008400e402000092
:020000040000fa
:04008800e40200008e
:020000040000fa
:04008c00e40200008a
:020000040000fa
:04009000e402000086
:020000040000fa
:04009400e402000082
:020000040000fa
:04009800e40200007e
:020000040000fa
:04009c00e40200007a
:020000040000fa
:0400a000e402000076
:020000040000fa
:0400a400e402000072
:020000040000fa
:0400a800e40200006e
:020000040000fa
:0400ac00e40200006a
:020000040000fa
:0400b000e402000066
:020000040000fa
:0400b400e402000062
:020000040000fa
:0400b800e40200005e
:020000040000fa
:0400bc00e40200005a
:020000040000fa
:0400c000e402000056
:020000040000fa
:0400c400e402000052
:020000040000fa
:0400c800e40200004e
:020000040000fa
:0400cc00e40200004a
:020000040000fa
:0400d000e402000046
:020000040000fa
:0400d400e402000042
:020000040000fa
:0400d800e40200003e
:020000040000fa
:0400dc00e40200003a
:020000040000fa
:0400e000e402000036
:020000040000fa
:0400e400e402000032
:020000040000fa
:0400e800e40200002e
:020000040000fa
:0400ec00e40200002a
:020000040000fa
:0400f000e402000026
:020000040000fa
:0400f400e402000022
:020000040000fa
:0400f800e40200001e
:020000040000fa
:0400fc00e40200001a
:020000040000fa
:04010000e402000015
:020000040000fa
:04010400e402000011
:020000040000fa
:04010800e40200000d
:020000040000fa
:04010c00e402000009
:020000040000fa
:04011000e402000005
:020000040000fa
:04011400e402000001
:020000040000fa
:04011800e4020000fd
:020000040000fa
:04011c00e4020000f9
:020000040000fa
:04012000e4020000f5
:020000040000fa
:04012400e4020000f1
:020000040000fa
:04012800e4020000ed
:020000040000fa
:04012c00e4020000e9
:020000040000fa
:04013000e4020000e5
:020000040000fa
:04013400e4020000e1
:020000040000fa
:04013800e4020000dd
:020000040000fa
:04013c00e4020000d9
:020000040000fa
:04014000e4020000d5
:020000040000fa
:04014400e4020000d1
:020000040000fa
:04014800e4020000cd
:020000040000fa
:04020800e40200000c
:020000040000fa
:04020c00e402000008
:020000040000fa
:04021000e402000004
:020000040000fa
:04021400e402000000
:020000040000fa
:04021800e4020000fc
:020000040000fa
:04021c00e4020000f8
:020000040000fa
:04022000e4020000f4
:020000040000fa
:04022400e4020000f0
:020000040000fa
:04022800e4020000ec
:020000040000fa
:04022c00e4020000e8
:020000040000fa
:04023000e4020000e4
:020000040000fa
:04023400e4020000e0
:020000040000fa
:04023800e4020000dc
:020000040000fa
:04023c00e4020000d8
:020000040000fa
:04024000e4020000d4
:020000040000fa
:04024400e4020000d0
:020000040000fa
:04024800e4020000cc
:020000040000fa
:04024c00e4020000c8
:020000040000fa
:04025000e4020000c4
:020000040000fa
:04025400e4020000c0
:020000040000fa
:04025800e4020000bc
:020000040000fa
:04025c00e4020000b8
:020000040000fa
:04026000e4020000b4
:020000040000fa
:04026400e4020000b0
:020000040000fa
:04026800e4020000ac
:020000040000fa
:04026c00e4020000a8
:020000040000fa
:04027000e4020000a4
:020000040000fa
:04027400e4020000a0
:020000040000fa
:04027800e40200009c
:020000040000fa
:04027c00e402000098
:020000040000fa
:04028000e402000094
:020000040000fa
:04028400e402000090
:020000040000fa
:04028800e40200008c
:020000040000fa
:04028c00e402000088
:020000040000fa
:04029000e402000084
:020000040000fa
:04029400e402000080
:020000040000fa
:04029800e40200007c
:020000040000fa
:04029c00e402000078
:020000040000fa
:0402a000e402000074
:020000040000fa
:0402a400e402000070
:020000040000fa
:0402a800e40200006c
:020000040000fa
:0402ac00e402000068
:020000040000fa
:0402b000e402000064
:020000040000fa
:0402b400e402000060
:020000040000fa
:0402b800e40200005c
:020000040000fa
:0402bc00e402000058
:020000040000fa
:0402c000e402000054
:020000040000fa
:0402c400e402000050
:020000040000fa
:0402c800e40200004c
:020000040000fa
:0402cc00e402000048
:020000040000fa
:0402d000e402000044
:020000040000fa
:0402d400e402000040
:020000040000fa
:0402d800e40200003c
:020000040000fa
:0402dc00e402000038
:020000040000fa
:0402e000e402000034
:020000040000fa
:0402e400e402000030
:020000040000fa
:0402e800e40200002c
:020000040000fa
:0402ec00e402000028
:020000040000fa
:0402f000e402000024
:020000040000fa
:0402f400e402000020
:020000040000fa
:0402f800e40200001c
:020000040000fa
:0402fc00e402000018
:020000040000fa
:04030000e402000013
:020000040000fa
:04030400e40200000f
:020000040000fa
:04030800e40200000b
:020000040000fa
:04030c00e402000007
:020000040000fa
:04031000e402000003
:020000040000fa
:04031400e4020000ff
:020000040000fa
:04031800e4020000fb
:020000040000fa
:04031c00e4020000f7
:020000040000fa
:04032000e4020000f3
:020000040000fa
:04032400e4020000ef
:020000040000fa
:04032800e4020000eb
:020000040000fa
:04032c00e4020000e7
:020000040000fa
:04033000e4020000e3
:020000040000fa
:04033400e4020000df
:020000040000fa
:04033800e4020000db
:020000040000fa
:04033c00e4020000d7
:020000040000fa
:04034000e4020000d3
:020000040000fa
:04034400e4020000cf
:020000040000fa
:04034800e4020000cb
:020000040000fa
:100400004f8020000e7f22000e01880000000000b7
:10041000000020000000e000020032000001200087
:100420002002880014000700690007000000e000b7
:1004300003003a00603e2000010020000200370067
:100440000000200001002000810f70000100320038
:1004500014000700000020000000e000020032004d
:100460000000020000000000dc03020000000000a9
:100470000040da000000fe004440a9000000200017
:100480000000e0000300320000002000a00188000e
:100490004440a800000006008a1f78008b1f7800e7
:1004a0000000060091018800800478000000eb0045
:1004b0001a003700e284440032a0b4009905ba0063
:1004c000e284440032a0b4009906ba00e2844400f9
:1004d00032a0b4000006eb00476fde00fd07b2005b
:1004e000636ce10003003a00ebff07000000eb0043
:1004f0000a003700606ce10004003a00005deb0088
:100500008b05e900fdff3e00040037006168e10053
:10051000010032000086eb000b00070019c7ba008b
:100520001905ba000e04e00003003a000a00e000da
:10053000e0ff3a0000000600fe07b2009e018800be
:100540008a047800f5ff3700395dba008b05e900b1
:100550000c003200295dba008b05e900080032006a
:100560000c00e00003003a00e284440032a0b40032
:10057000f5ff370019ddba008b05e900faff3a00f4
:100580008904e800e184440032a0b40000000600c1
:10059000801f78000000fa00104080000000e0009a
:1005a00002003a000008a800030037001040800055
:1005b0000000e9001040880084e0a9000080fa00f3
:1005c0004f007800004006000040da000000fe0006
:0405d0000000050022
:020000040000fa
:1005d4000000fa00c022a800c082a900c802a90035
:1005e400c822a900c842a900c942a8006860a8009e
:1005f4006a00a8002c23a8000002200080088800bc
:10060400a00f2000600888000621ef0084e0a90004
:1006140094e0a80011e1a800c482a800cc42a9007b
:10062400601680004200de00614060000080fb0034
:100634006100600000004000611680000110a1000c
:100644000100700060168800601680000000d10070
:10065400614060000080fb00610060006116800062
:100664000100a10001007000601688000080fa00fb
:10067400000006000200fa00000f78009e007800d7
:10068400114088000008a90000000000004080001c
:10069400610060000000e000fcff32000080fa000e
:1006a400000006000400fa00100798000b00370051
:1006b40030002000000f7800020037000000000026
:1006c4001e0fe9001e0078000000e000fbff3a0066
:1006d4001e0090000000e900100798001e00900022
:1006e4000000e000f2ff3a000080fa00000006007b
:1006f4000000fa000080fa00000006000000fa0082
:10070400501680004a00de00614060000080fb005b
:10071400610060004400dd00211680000140a1005a
:100724000100700020168800201680004400de00be
:10073400614060000080fb00610060006116800081
:100744000100a1000100700060168800cc22a800fe
:10075400401f2000c7ff0700cc22a900401f200033
:10076400c4ff070010168000620060000000e00073
:100774000e003a000200370040062000bdff0700cb
:1007840010168000620060000000e000faff3200f2
:1007940060168000640060000000e00002003a007f
:1007a400cc42a80001003700cc42a9000080fa0026
:1007b400000006000000fa0085ff0700ccff0700d8
:0807c400ceff0700feff370025
:020000040000fa
:1007cc000008000004000000000000000000000011
:020000040000fa
:020000040001f9
:0407f800bff9000045
:020000040000fa
:020000040001f9
:0407fc006a1f000070
:00000001FF
