:020000040000fa
:080000000002040000000000f2
:020000040000fa
:04000800e80200000a
:020000040000fa
:04000c00e802000006
:020000040000fa
:04001000e802000002
:020000040000fa
:04001400e8020000fe
:020000040000fa
:04001800e8020000fa
:020000040000fa
:04001c00e8020000f6
:020000040000fa
:04002000e8020000f2
:020000040000fa
:04002400e8020000ee
:020000040000fa
:04002800e8020000ea
:020000040000fa
:04002c00e8020000e6
:020000040000fa
:04003000e8020000e2
:020000040000fa
:04003400e8020000de
:020000040000fa
:04003800e8020000da
:020000040000fa
:04003c00e8020000d6
:020000040000fa
:04004000e8020000d2
:020000040000fa
:04004400cc020000ea
:020000040000fa
:04004800e8020000ca
:020000040000fa
:04004c00e8020000c6
:020000040000fa
:04005000e8020000c2
:020000040000fa
:04005400e8020000be
:020000040000fa
:04005800e8020000ba
:020000040000fa
:04005c00e8020000b6
:020000040000fa
:04006000e8020000b2
:020000040000fa
:04006400e8020000ae
:020000040000fa
:04006800e8020000aa
:020000040000fa
:04006c00e8020000a6
:020000040000fa
:04007000e8020000a2
:020000040000fa
:04007400e80200009e
:020000040000fa
:04007800e80200009a
:020000040000fa
:04007c00e802000096
:020000040000fa
:04008000e802000092
:020000040000fa
:04008400e80200008e
:020000040000fa
:04008800e80200008a
:020000040000fa
:04008c00e802000086
:020000040000fa
:04009000e802000082
:020000040000fa
:04009400e80200007e
:020000040000fa
:04009800e80200007a
:020000040000fa
:04009c00e802000076
:020000040000fa
:0400a000e802000072
:020000040000fa
:0400a400e80200006e
:020000040000fa
:0400a800e80200006a
:020000040000fa
:0400ac00e802000066
:020000040000fa
:0400b000e802000062
:020000040000fa
:0400b400e80200005e
:020000040000fa
:0400b800e80200005a
:020000040000fa
:0400bc00e802000056
:020000040000fa
:0400c000e802000052
:020000040000fa
:0400c400e80200004e
:020000040000fa
:0400c800e80200004a
:020000040000fa
:0400cc00e802000046
:020000040000fa
:0400d000e802000042
:020000040000fa
:0400d400e80200003e
:020000040000fa
:0400d800e80200003a
:020000040000fa
:0400dc00e802000036
:020000040000fa
:0400e000e802000032
:020000040000fa
:0400e400e80200002e
:020000040000fa
:0400e800e80200002a
:020000040000fa
:0400ec00e802000026
:020000040000fa
:0400f000e802000022
:020000040000fa
:0400f400e80200001e
:020000040000fa
:0400f800e80200001a
:020000040000fa
:0400fc00e802000016
:020000040000fa
:04010000e802000011
:020000040000fa
:04010400e80200000d
:020000040000fa
:04010800e802000009
:020000040000fa
:04010c00e802000005
:020000040000fa
:04011000e802000001
:020000040000fa
:04011400e8020000fd
:020000040000fa
:04011800e8020000f9
:020000040000fa
:04011c00e8020000f5
:020000040000fa
:04012000e8020000f1
:020000040000fa
:04012400e8020000ed
:020000040000fa
:04012800e8020000e9
:020000040000fa
:04012c00e8020000e5
:020000040000fa
:04013000e8020000e1
:020000040000fa
:04013400e8020000dd
:020000040000fa
:04013800e8020000d9
:020000040000fa
:04013c00e8020000d5
:020000040000fa
:04014000e8020000d1
:020000040000fa
:04014400e8020000cd
:020000040000fa
:04014800e8020000c9
:020000040000fa
:04020800e802000008
:020000040000fa
:04020c00e802000004
:020000040000fa
:04021000e802000000
:020000040000fa
:04021400e8020000fc
:020000040000fa
:04021800e8020000f8
:020000040000fa
:04021c00e8020000f4
:020000040000fa
:04022000e8020000f0
:020000040000fa
:04022400e8020000ec
:020000040000fa
:04022800e8020000e8
:020000040000fa
:04022c00e8020000e4
:020000040000fa
:04023000e8020000e0
:020000040000fa
:04023400e8020000dc
:020000040000fa
:04023800e8020000d8
:020000040000fa
:04023c00e8020000d4
:020000040000fa
:04024000e8020000d0
:020000040000fa
:04024400e8020000cc
:020000040000fa
:04024800e8020000c8
:020000040000fa
:04024c00e8020000c4
:020000040000fa
:04025000e8020000c0
:020000040000fa
:04025400e8020000bc
:020000040000fa
:04025800e8020000b8
:020000040000fa
:04025c00e8020000b4
:020000040000fa
:04026000e8020000b0
:020000040000fa
:04026400e8020000ac
:020000040000fa
:04026800e8020000a8
:020000040000fa
:04026c00e8020000a4
:020000040000fa
:04027000e8020000a0
:020000040000fa
:04027400e80200009c
:020000040000fa
:04027800e802000098
:020000040000fa
:04027c00e802000094
:020000040000fa
:04028000e802000090
:020000040000fa
:04028400e80200008c
:020000040000fa
:04028800e802000088
:020000040000fa
:04028c00e802000084
:020000040000fa
:04029000e802000080
:020000040000fa
:04029400e80200007c
:020000040000fa
:04029800e802000078
:020000040000fa
:04029c00e802000074
:020000040000fa
:0402a000e802000070
:020000040000fa
:0402a400e80200006c
:020000040000fa
:0402a800e802000068
:020000040000fa
:0402ac00e802000064
:020000040000fa
:0402b000e802000060
:020000040000fa
:0402b400e80200005c
:020000040000fa
:0402b800e802000058
:020000040000fa
:0402bc00e802000054
:020000040000fa
:0402c000e802000050
:020000040000fa
:0402c400e80200004c
:020000040000fa
:0402c800e802000048
:020000040000fa
:0402cc00e802000044
:020000040000fa
:0402d000e802000040
:020000040000fa
:0402d400e80200003c
:020000040000fa
:0402d800e802000038
:020000040000fa
:0402dc00e802000034
:020000040000fa
:0402e000e802000030
:020000040000fa
:0402e400e80200002c
:020000040000fa
:0402e800e802000028
:020000040000fa
:0402ec00e802000024
:020000040000fa
:0402f000e802000020
:020000040000fa
:0402f400e80200001c
:020000040000fa
:0402f800e802000018
:020000040000fa
:0402fc00e802000014
:020000040000fa
:04030000e80200000f
:020000040000fa
:04030400e80200000b
:020000040000fa
:04030800e802000007
:020000040000fa
:04030c00e802000003
:020000040000fa
:04031000e8020000ff
:020000040000fa
:04031400e8020000fb
:020000040000fa
:04031800e8020000f7
:020000040000fa
:04031c00e8020000f3
:020000040000fa
:04032000e8020000ef
:020000040000fa
:04032400e8020000eb
:020000040000fa
:04032800e8020000e7
:020000040000fa
:04032c00e8020000e3
:020000040000fa
:04033000e8020000df
:020000040000fa
:04033400e8020000db
:020000040000fa
:04033800e8020000d7
:020000040000fa
:04033c00e8020000d3
:020000040000fa
:04034000e8020000cf
:020000040000fa
:04034400e8020000cb
:020000040000fa
:04034800e8020000c7
:020000040000fa
:100400002fc620000e7f22000e0188000000000091
:10041000000020000000e000020032000001200087
:1004200020028800140007006b0007000000e000b5
:1004300003003a000095220001002000020037006e
:100440000000200001002000810f70000100320038
:1004500014000700000020000000e000020032004d
:100460000000020000000000a629020000000000b9
:100470000040da000000fe004440a900806721002f
:100480000000e0000300320000002000a00188000e
:100490004440a800000006008a1f78008b1f7800e7
:1004a0000000060091018800800478000000eb0045
:1004b0001a003700e284440032a0b4009905ba0063
:1004c000e284440032a0b4009906ba00e2844400f9
:1004d00032a0b4000006eb00476fde00fd07b2005b
:1004e000636ce10003003a00ebff07000000eb0043
:1004f0000a003700606ce10004003a00005deb0088
:100500008b05e900fdff3e00040037006168e10053
:10051000010032000086eb000b00070019c7ba008b
:100520001905ba000e04e00003003a000a00e000da
:10053000e0ff3a0000000600fe07b2009e018800be
:100540008a047800f5ff3700395dba008b05e900b1
:100550000c003200295dba008b05e900080032006a
:100560000c00e00003003a00e284440032a0b40032
:10057000f5ff370019ddba008b05e900faff3a00f4
:100580008904e800e184440032a0b40000000600c1
:100590000000000000000000801f78000000fa004a
:1005a000104080000000e00002003a000008a800af
:1005b00003003700104080000000e9001040880070
:1005c00084e0a9000080fa004f0078000040060097
:1005d0000040da000000fe0000000500881f7800df
:1005e0000204780008017800c400070008004000f9
:1005f0004f047800000006000000fa00881f780011
:1006000000047800ea8157003fb99700880078001d
:10061000e02e2000070007000000e0000200350087
:100620008040eb00017478004f0478000080fa00ed
:10063000000006006200fa00889fbe008a1f780052
:1006400000057800810478000204780083007800b7
:1006500080f92f000f004000770107009a979f0054
:10066000a9979f000000eb00b09f9f001885fb003a
:100670008a04fb000a05ea004f55de005002200004
:10068000808f54000d003200e10f55000b003a003e
:100690000a017800880078002f9097009f919700ba
:1006a00003000100a0979f000000e0008e003200d0
:1006b0003f9897000000e800b09f9f000a044400a4
:1006c00050022000808f5400040032000900e00036
:1006d000e6ff3a003f989700840037000000eb00e7
:1006e000909f9f00809f9f00f0979f00e0979f0042
:1006f000d0979f00c0979f0007003700c1c520001a
:10070000010050000000400001c520006100780099
:10071000df98970001007000d09f9f008804780048
:1007200009047800384578008a00fb00c0c5200025
:10073000790007000000e000f0ff3a00a1c2b3001a
:10074000814f55000e003a00cf8897000180e900e4
:10075000c08f9f0010007800c09f9f000000e00045
:1007600005003d000000ea00c09f9f005f989700d1
:100770000020a000d09f9f000904e8000f00370070
:10078000c09f9f000000eb0005003700f2ff27002c
:10079000820f5000020032006a01b900028040005e
:1007a0000904780088047800b900fb000103b10057
:1007b000e98f5000f5ff3600c09f9f00e0c2b300f4
:1007c000984f1000020032000080eb001900370043
:1007d000a0c2b300d84f100007003a00cf8897009e
:1007e0000180e900c08f9f0010007800a09f9f004b
:1007f0000804e800100037000000eb00a09f9f00f5
:100800008800780005003700f3ff2700830f5000b1
:10081000020032006a02b9000400410001047800bd
:10082000880078003101fb000203b100e90f51009c
:10083000f5ff3600a09f9f00984478008900fb00d8
:1008400080c42000340007000000e00002003200f5
:100850000804e800010037008044eb00c97f9f00d6
:1008600080c6b30080cf540004003a0098cf140033
:100870000a003a006640500006003700c0c6b300c8
:1008800080cf540005003a0098cf140003003a00ce
:1008900065404000c07f9f000804e8001801fb008d
:1008a000e3fb2f008f81410081f92f008f804000f2
:1008b000a0f92f000f004000e10007000000e00059
:1008c00009003a00e1fb2f008f804000a0f92f00c3
:1008d0000f0040001c0007000000e000020035008f
:1008e0000804e80061ff37000080eb004f05780046
:1008f0004f04be000080fa0000000600800178006e
:1009000002003700b15978000201e9000200e0005e
:10091000fcff3a0000000600020037000304e0007c
:10092000060032000001780002007800b041780033
:1009300081cf5100f9ff3a00010037000001eb00c0
:1009400002007800000006000400fa00889fbe0044
:100950008a9fbe008c1f7800000478000106780092
:10096000f80d9000780090008085550008089000f0
:100970008085550018089000808555002808900053
:100980008085550038089000808555004808900003
:10099000808555000002220090bf9f0000032300c5
:1009a000a0bf9f00081090000028a30015003a0087
:1009b0000b00e000130034000b0578008a04780077
:1009c000e20f55000100360029002000c801900008
:1009d00009017800ee8057005800900003000100e4
:1009e000500498000000e0008c003200680890007d
:1009f00009004000600c9800090555004240a9001c
:100a0000eeff3c00780190000200e0000c00340092
:100a1000c80190008c00780058009000030001008d
:100a2000500498008080eb000000e0007c00320061
:100a3000e80890007800900000804000600c98006a
:100a4000880c90000900e0001100340009057800ce
:100a5000e28f5400010036002a002000c8019000f7
:100a60000a017800ec805700580090000300010054
:100a7000500498000000e000680032006808900010
:100a80000a004000600c98008a845400edff370093
:100a9000180990000200e0000c003400c80190002a
:100aa000e8009000580090000300010050049800f6
:100ab0008080eb000000e00059003200e808900060
:100ac0001808900000804000600c9800a80c90006e
:100ad0000900e0001100340009057800e28f54009d
:100ae000010036002a002000c80190000a017800a9
:100af000ec8057005800900003000100500498005b
:100b00000000e00045003200680890000a00400044
:100b1000600c98008a845400edff3700380990007b
:100b20000200e0000e003400e80090001808900079
:100b300080804000c8019000580090000300010030
:100b4000500498008080eb000000e0003400320088
:100b5000e80890003808900000804000600c980081
:100b6000c80c90000900e00011003400090578006d
:100b7000e28f5400010036002a002000c8019000d6
:100b80000a017800ec805700580090000300010033
:100b9000500498000000e000200032006808900037
:100ba0000a004000600c98008a845400edff370072
:100bb000081090008000eb000028a300180032000d
:100bc0000b00e000160034008b0478000905780063
:100bd000e28f5400010036002a002000c801900076
:100be0000a017800ee8057005800900003000100d1
:100bf000500498000000e0000800320068089000ef
:100c00000a004000600c98008a8454004240a90009
:100c1000eeff3c008000eb00010037008080eb001d
:100c2000010078004f0678004f05be004f04be005b
:100c30000080fa00000006000108780000000600ad
:100c4000889fbe008a9fbe00e4c6b300844f510057
:100c5000be00320010003c006b425200844f510035
:100c60001800320005003c0054c2b300844f51000c
:100c7000f600320084c5b3000f00370044c6b3004d
:100c8000844f51001400320065424200844f5100ed
:100c9000f1003a001000370004c7b300844f510040
:100ca000dd0032005600350065424200844f51009d
:100cb0005300320063424200844f5100e6003a0084
:100cc0004f0037001181e90082087800f0009000a1
:100cd00012417800de00370020629000c5c6b300e4
:100ce000854f520007003a0091027800648252005a
:100cf000840878001402be004fabde008603780043
:100d00001400370015c7b300854f520003003a00a6
:100d1000110478006802540005003700a5c6b3002e
:100d2000854f520006003a00910478006882540012
:100d3000840878005403be004402be00050037005a
:100d40001182e9008408780014027800cfa2de0046
:100d5000612bb9000498be000690be00a060900010
:100d600088c6b30088cf50000d00320028c6b300fb
:100d700088cf500004003a000402fb00cfa2de003e
:100d8000612bb9000800370048c7b30088cf500076
:100d9000030032006644440088cf500004003a004b
:100da000cfa2de00612bb9000498be000690be0001
:100db0003002be002003be00f0009000e00f5200a1
:100dc000e08f5a00e00f5b00e08f5b0002003d0007
:100dd000d4c2b30008003700001290000418a3002a
:100de00002003200b4c2b300030037000408a300bd
:100df0005100320004c2b30084f178004c00370087
:100e000020629000c5c6b300854f520008003a002a
:100e10001105780064025500840878001404be00af
:100e20006055b8000802be000a03be001400370077
:100e300015c7b300854f520003003a0091047800b3
:100e40006882540005003700a5c6b300854f5200e4
:100e500006003a0011057800680255008408780001
:100e60005403be004402be00050037001182e900b1
:100e700084087800140278008002eb006033b80028
:100e80000498be000690be00a060900088c6b30023
:100e900088cf50000d00320028c6b30088cf500024
:100ea00004003a000482fb008002eb006033b800cb
:100eb0000800370048c7b30088cf50000300320055
:100ec0006644440088cf500004003a008002eb00e2
:100ed0006033b8000498be000690be0080109000f9
:100ee0000138a300140032003002be002003be000f
:100ef000e00f5200e08f5a00e00f5b00e08f5b00d4
:100f00000d00320081c7b300814f51000300320051
:100f100081c5b300814f510007003a00f0009000f6
:100f200004c3b30084f178008100e80082f1780006
:100f30008100e80071009800f0009000818141007c
:100f400063009800824078003e003700a061900066
:100f5000c4c6b3001181e90084cf510022003200e1
:100f60000a003c006442520084cf51002500320048
:100f700004c2e80084cf51001300320068425200de
:100f800084cf51001e003a000a00370044c7b30066
:100f900084cf51001b0032006642420084cf5100d2
:100fa000180032006942520084cf510014003a0008
:100fb00005003700820878009200780040589000c1
:100fc000804878002c003700820878009200780072
:100fd000600a9000cfa2de00612bb9008498be00a9
:100fe0008690be00240037008208780092007800c6
:100ff00060099000cf91de008288be001e0037009d
:101000001181e90082087800920078006008900061
:1010100080087800180037001181e9008208780004
:1010200012027800cfa2de00612bb9000498be0046
:101030000690be00f000900081814100630098009e
:1010400081c7b300100007000b003700f0009000cc
:1010500082f1780006003700f000900081814100a5
:101060000204e00001003a0052c2b3008249780055
:101070008100e800710098000000eb004f05be0001
:101080004f04be0000000600fc874700889fbe009a
:101090008a9fbe008c9fbe008e1f780000067800dd
:1010a00080c5b30080cf50000a0032007740400076
:1010b00080cf50000a0032006940400080cf5000cd
:1010c0000b003200d0c1200080bf9f00ae00200086
:1010d0000a003700c2c0200082bf9f000600370010
:1010e000d3c1200083bf9f008e0020000300370083
:1010f000d4c1200084bf9f000e0120003c02be002e
:101100002c03be000605be000404be0040c6b300aa
:1011100080cf5000030032006540400080cf500077
:101120000b003a00e00f5200e08f5a00e00f5b0026
:10113000e08f5b0006003d006000b8006011b80061
:10114000040450008584580006055900878559001d
:10115000e80f57000400320040002000f00f570055
:1011600038003a000100370030002000e00f540042
:10117000e08f5c00e00f5d00e08f5d0004003a004e
:10118000dc0890008d0120000100e0000600320024
:101190008e00e900888060008fba9700e5c0780073
:1011a000f1ef9f007d012000800078008100e900c0
:1011b000050033008b05d1000a85d3008984d30054
:1011c0000884d300f9ff3700089ebe000a96be00cf
:1011d000120037008d06e9008e00e900848060006f
:1011e0000fb99700e2c1780082fd2f000f01410086
:1011f00003f17e00800078008100e90005003300e3
:101200008783d1000683d3008582d3000482d30074
:10121000f9ff3700049ebe000696be003c02be00e9
:101220002c03be00e00f5200e08f5a00e00f5b007d
:10123000e08f5b008b0034000d00e000e5ff3c0018
:10124000880037002c60900081c6b300814f5000a9
:101250000b00320006003c000004e00008003200f1
:10126000e6c05000814f50004e003a0004003700a5
:10127000c1c6b300814f50004a003a002100370038
:101280000800e00004003a005c0890008d01200096
:101290000000e00006003200110009000e84d800b2
:1012a0000fb99700e2c07800f1ef9f007d012000a8
:1012b000110009000e84d8000a003700110009004f
:1012c0000e04d8008d06e9000e81b9000204540016
:1012d0008fb8970061417c0081fd2f008f80400016
:1012e00082f07e00000478000800e0000200320076
:1012f0000d00e000f1ff3c00cfc4de00614db900fd
:1013000025003700e00f5400e08f5c0004003a0035
:101310005c0890008d0120000000e0000700320012
:101320006171b9000800be00a50007008fb99700e1
:10133000e3417800f3ef9f007d0120006171b90067
:101340000800be008e0007000b0037006171b90075
:101350000800be007b0007008d06e90000f1b9001f
:10136000020454000fba9700e4427c0084fd2f0071
:101370000f02420005f27e000004be00e00f5000a4
:10138000e08f5800020032000d00e000efff3c004b
:101390004fcdde008a057800089ebe000a96be008a
:1013a00030003700e00f5400e08f5c00e00f5d007c
:1013b000e08f5d0004003a005c0890008d01200081
:1013c0000000e000090032006172b900612bb90031
:1013d0000800be000a01be001c0107000fba9700fa
:1013e00064427800f4ef9f007d0120006172b90033
:1013f000612bb9000800be000a01be000c01070005
:101400000d0037006172b900612bb9000800be0001
:101410000a01be00110107008d06e90000f2b900c3
:10142000040454008fba970065427c0085fd2f00ac
:101430008f82420084f27e00009ebe000296be00b3
:101440003c04be002c05be00e00f5400e08f5c00a1
:10145000e00f5d00e08f5d00020034000d00e00051
:10146000e8ff3c00e80f570010003a000c10900015
:101470000038a3000d003200f78f560006003e0032
:1014800085fd2f008f824200e5c07e0000c3b300bf
:1014900080cf5000050032008d06e90002c3b30082
:1014a00081fd2f008f80400082f07e007881160041
:1014b000120e98006c00900083fd2f008f81410078
:1014c0008d8041000dfd07001c089000dc08900095
:1014d000810f500006003d0000805000000e980073
:1014e0000c1090000040a100001698000f0037007b
:1014f0000100e0000d003d008c109000f4806000c1
:10150000f08f500009003a007c099000fc00900028
:10151000810051000c099000828050000080500032
:101520004240a90001003400000e98004f077800e7
:101530004f06be004f05be004f04be00cf01b100f4
:1015400000000600839f68000100e00002003d00eb
:1015500060001000e08018000300e00002003d0081
:1015600060011100e0811900050007004f00e00054
:1015700002003b0060001000e08018000000060040
:101580006022b800060220000000d0008180d20056
:101590000482d2008582d2000000a0000202520024
:1015a00083825a00030031000202420083824a0013
:1015b0000000a1000603e900f3ff3a000000060066
:1015c000efff07000400be0000000600889fbe0079
:1015d0008a9fbe0030044200b0844a0030054b00b0
:1015e00090854b006000b1000898be000a90be00d4
:1015f0000440e10005c8e10006d0e10007d8e100a1
:1016000002003100680040001008e8004f05be00ed
:101610004f04be0000000600889fbe008a9fbe00e7
:101620003004be002005be000418540005985c007c
:1016300006185d0007985d00110020000440e100dd
:1016400005c8e10006d0e10007d8e100010039003b
:101650008000eb00108810004f05be004f04be0054
:10166000000006001200fa00889fbe008a9fbe009c
:101670008c9fbe00e0b79f00f1b79f0082bf9f0024
:1016800093bf9f000605be000404be000000eb00ef
:10169000d0b79f00c0b79f00b0b79f00a0b79f0012
:1016a00090b79f000006eb005fb19700cfb09700a6
:1016b000820141003fb097000200e00004003d00bd
:1016c000370007007e805700c0ff07000300370087
:1016d000330007007e805700cfff0700dfb697007a
:1016e0000d00e0000c0035006fb29700ffb29700cc
:1016f0000fbb97009fbb9700100020000100200047
:101700006011b8000002720081827200020373004f
:10171000838373001b0007000c06e800010420000f
:10172000810f5600e0ff3a000d00e00004003d008c
:101730000802be000a03be007e805700a3ff070018
:101740005fa897000000e00005003a001fb2970074
:10175000afb297003fb39700cfb3970009000700df
:101760006fb09700ffb097000fb997009fb997002f
:101770004f06be004f05be004f04be000080fa00b9
:10178000000006000100070000000600a4b79f004b
:10179000b5b79f00c6b79f00d7b79f0000000600ef
:1017a0004f09de0082817100b3b79f004f01de0058
:1017b0008180400082807000a1b79f008fb09700a9
:1017c0004f09de00000040000200700090b79f004b
:1017d0007fa897004f01de0081804000828070006a
:1017e00081b79f000d0007004f3ade000000400067
:1017f00004007000f0af9f000800070004024200e0
:1018000085824a0006034b0087834b00dfff0700f9
:101810000802be000a03be00000006002fb29700b7
:10182000bfb297004fb39700dfb3970000000600e8
:10183000881f780018002000881f780089ff0700a3
:101840008f87e9004f04780000000600801feb003e
:1018500084ff07008f87e90000000600889fbe0014
:101860008a9fbe00e00f5000e08f5800e00f590043
:10187000e08f59000c003d006044b8006055b8008e
:101880000000540081805c0002015d0083815d00e6
:10189000180020001500070008003d001800070090
:1018a0000004eb00050037000004eb000f00070008
:1018b00002003d001200070018002000dcff0700b6
:1018c0000800e000060032006022b8006033b80073
:1018d0000000520081805a0002015b0083815b009e
:1018e0004f05be004f04be0000000600e00f52008e
:1018f000e08f5a00e00f5b00e08f5b000000060005
:101900006044b8006055b8000402540085825c0051
:1019100006035d0087835d0000000600889fbe000f
:101920008a9fbe008c1f7800e00f5000e08f5800a7
:10193000e00f5900e08f59000d003d006044b800f1
:101940006055b8000000540081805c0002015d0019
:1019500083815d001c0020000820e10009a8e1004f
:101960000ab0e1000bb8e1000d003d0008003700af
:101970000006eb00e00f5200e08f5a00e00f5b0022
:10198000e08f5b0006003d006044b8006055b80081
:101990000402540085825c0006035d0087835d00bd
:1019a000aaff07000c00e000060032006022b80029
:1019b0006033b8000000520081805a0002015b00d1
:1019c00083815b004f0678004f05be004f04be00c8
:0419d000000006000d
:020000040000fa
:1019d4000000000000000000000000000000000003
:1019e40000000000000000000000000000000000f3
:1019f40000000000000000000000000000000000e3
:101a040000000000000000000000000000000000d2
:101a140000000000000000001bfc000000000000ab
:101a240000000000000000000000000000000000b2
:101a340000000000000000000000000000000000a2
:101a44000000000000000000001e00000000000074
:101a540000000000001e0000000000000000000064
:101a64000000000000000000000000000000000072
:101a740000000000020000001a20000007200000ff
:101a840002f000001a2c00000720000002f0000001
:101a9400022c0000002000000000000000000000f4
:101aa40000000000000000000000000008700000ba
:101ab4001088000010880000fffe000011080000dc
:101ac4000e100000000000000000000000000000f4
:101ad4000000000000780000008400000084000082
:101ae400108400000c780000020000000180000057
:101af400006000000f180000108400001080000037
:101b0400108000000f000000000000000f00000023
:101b140010b8000010c4000010840000114400003c
:101b2400123800000c0000000bc000001000000080
:101b340000000000000000000000000000000000a1
:101b44000000000000000000000000000000000091
:101b540000000000001e0000000000000000000063
:101b64000000000000000000000000000000000071
:101b74000000000000000000000000000000000061
:101b8400000000000fe000003018000040040000d6
:101b940080020000000000000000000000000000bf
:101ba4000000000000000000000000000000000031
:101bb400000000000000000080020000400400005b
:101bc400301800000fe000000000000000000000da
:101bd4000000000000000000000000000000000001
:101be4000000000000440000002800000010000075
:101bf40000fe000000100000002800000044000067
:101c040000000000000000000000000000000000d0
:101c140000000000010000000100000001000000bd
:101c2400010000001ff0000001000000010000009e
:101c3400010000000100000000000000000000009e
:101c44000000000000000000000000000000000090
:101c540000000000c0000000380000000000000088
:101c64000000000000000000000000000000000070
:101c74000000000000000000000000000000000060
:101c8400000000000100000001000000010000004d
:101c9400010000000000000000000000000000003f
:101ca4000000000000000000000000000000000030
:101cb4000000000000000000000000000000000020
:101cc40018000000000000000000000000000000f8
:101cd4000000000000000000000000000000000000
:101ce40000000000000000000000000040000000b0
:101cf400380000000700000000e00000001c0000a5
:101d040000020000000000000000000000000000cd
:101d1400000000000000000007f0000008080000b8
:101d24001004000010040000100400000808000063
:101d340007f00000000000000000000000000000a8
:101d4400000000000000000000000000000000008f
:101d54000000000010100000101000001ffc000024
:101d6400100000001000000000000000000000004f
:101d7400000000000000000000000000000000005f
:101d84000000000018080000140400001204000001
:101d94001104000010880000107000000000000012
:101da400000000000000000000000000000000002f
:101db4000000000008080000100400001084000067
:101dc4001084000010840000094800000630000060
:101dd40000000000000000000000000000000000ff
:101de400000000000000000001800000014000002d
:101df4000120000001100000010800001ffc000089
:101e040001000000000000000000000000000000cd
:101e1400000000000000000000000000087c00003a
:101e2400104400001044000010440000104400005e
:101e34000884000007040000000000000000000007
:101e4400000000000000000000000000000000008e
:101e540007e000000858000010480000104400008b
:101e64001044000008840000070000000000000087
:101e7400000000000000000000000000000000005e
:101e84000000000000040000100400000c04000026
:101e94000304000000c4000000340000000c000033
:101ea400000000000000000000000000000000002e
:101eb4000000000000000000063000000948000097
:101ec4001084000010840000108400000948000001
:101ed40006300000000000000000000000000000c8
:101ee400000000000000000000000000007000007e
:101ef400108800001104000011040000090400000f
:101f04000d08000003f000000000000000000000c5
:101f140000000000000000000000000000000000bd
:101f240000000000000000000000000000000000ad
:101f34001860000000000000000000000000000025
:101f4400000000000000000000000000000000008d
:101f5400000000000000000000000000000000007d
:101f6400c000000038600000000000000000000015
:101f7400000000000000000000000000000000005d
:101f8400000000000000000000800000014000008c
:101f940001400000022000000220000004100000a4
:101fa4000410000008080000000000000000000009
:101fb40000000000000000000000000002400000db
:101fc4000240000002400000024000000240000005
:101fd4000240000002400000024000000000000037
:101fe40000000000000000000000000000000000ed
:101ff40000000000080800000410000004100000a5
:102004000220000002200000014000000140000006
:10201400008000000000000000000000000000003c
:1020240000000000000000000008000000040000a0
:102034001b0400000084000000440000003800007d
:10204400000000000000000000000000000000008c
:1020540007c0000018300000200800002788000096
:10206400484400004824000048240000482400009c
:102074004fe40000080800000810000007e000001a
:102084000000000000000000000000001800000034
:102094000700000002f00000020c0000020c000027
:1020a40002f000000700000018000000000000001b
:1020b400000000000000000000000000000000001c
:1020c4001ffc0000104400001044000010440000f5
:1020d400104400001044000008b80000070000008d
:1020e40000000000000000000000000000000000ec
:1020f4000000000003e000000c18000008080000c5
:10210400100400001004000010040000100400007b
:1021140008080000000000000000000000000000ab
:10212400000000001ffc0000100400001004000068
:10213400100400001004000010040000080800004f
:102144000c18000003e00000000000000000000084
:10215400000000000000000000000000000000007b
:102164001ffc000010440000104400001044000054
:10217400104400001044000010440000000000005f
:10218400000000000000000000000000000000004b
:102194001ffc000000440000004400000044000054
:1021a400004400000044000000440000000000005f
:1021b400000000000000000000000000000000001b
:1021c40003e000000c1800000808000010040000e0
:1021d400100400001084000010840000108400002b
:1021e4000f88000000000000000000000000000054
:1021f400000000001ffc0000004000000040000040
:1022040000400000004000000040000000400000ca
:10221400004000001ffc000000000000000000005f
:1022240000000000000000000000000000000000aa
:102234000000000000000000100400001ffc00006b
:102244001004000000000000000000000000000076
:10225400000000000000000000000000000000007a
:102264000000000010000000100400001004000032
:10227400100400000ffc000000000000000000003b
:10228400000000000000000000000000000000004a
:10229400000000001ffc00000080000000c00000df
:1022a40001200000021000000408000008040000df
:1022b400100000000000000000000000000000000a
:1022c4000000000000000000000000001ffc0000ef
:1022d40010000000100000001000000010000000ba
:1022e40010000000000000000000000000000000da
:1022f40000000000000000001ffc000000040000bb
:1023040000180000006000000180000002000000ce
:1023140001800000006000000018000000040000bc
:102324001ffc000000000000000000001ffc000073
:1023340000080000001000000060000000800000a1
:102344000100000006000000080000001ffc00005f
:102354000000000000000000000000000000000079
:1023640003e000000c18000008080000100400003e
:10237400100400001004000010040000080800000d
:102384000c18000003e00000000000000000000042
:102394000000000000000000000000001ffc00001e
:1023a4000104000001040000010400000104000015
:1023b4000088000000700000000000000000000021
:1023c400000000000000000003e000000c18000002
:1023d400080800001004000010040000700400004d
:1023e40090040000880800008c18000083e00000be
:1023f40000000000000000000000000000000000d9
:102404001ffc00000104000001040000010400009e
:10241400028400000478000008000000100000009e
:1024240000000000000000000000000000000000a8
:102434000000000000000000083000001048000008
:1024440010840000108400001084000009040000bf
:10245400060800000000000000000000000000006a
:102464000000000000000000000400000004000060
:1024740000040000000400001ffc00000004000031
:10248400000400000004000000040000000000003c
:10249400000000000000000007fc0000080000002d
:1024a40010000000100000001000000010000000e8
:1024b400100000000800000007fc000000000000fd
:1024c4000000000000000000000000000000000008
:1024d400000c000000700000038000001c000000dd
:1024e4001c0000000380000000700000000c0000cd
:1024f400000000000000000000000000000c0000cc
:1025040000f000000f000000180000000780000029
:10251400007800000004000000780000078000003c
:10252400180000000f00000000f00000000c000084
:102534000000000000000000100400000c1800005f
:102544000220000001c0000001c0000002200000c1
:102554000c1800001004000000000000000000003f
:102564000000000000000000000000000004000063
:102574000008000000300000004000001f80000040
:1025840000400000003000000008000000040000cb
:102594000000000000000000000000000000000037
:1025a40000000000180400001404000013040000dc
:1025b400108400001064000010140000100c0000cf
:1025c4000000000000000000000000000000000007
:1025d40000000000000000000000000000000000f7
:1025e400fffe000080020000800200008002000064
:1025f40000000000000000000000000000000000d7
:1026040000000000000000000000000000000000c6
:10261400000600000018000000e0000007000000b1
:10262400380000004000000000000000000000002e
:102634000000000000000000000000000000000096
:102644000000000000000000800200008002000082
:1026540080020000fffe00000000000000000000f7
:102664000000000000000000000000000000000066
:1026740000400000002000000010000000080000de
:10268400000400000008000000100000002000000a
:1026940000400000000000000000000000000000f6
:1026a4000000000040000000400000004000000066
:1026b4004000000040000000400000004000000016
:1026c40040000000000000000000000000000000c6
:1026d40000000000000000000000000000000000f6
:1026e40000000000000600000008000000000000d8
:1026f40000000000000000000000000000000000d6
:102704000000000000000000000000000c000000b9
:1027140012400000112000001120000011200000d0
:10272400092000001fc0000000000000000000009d
:102734000000000000000000000000000000000095
:10274400000000001ffe00001040000010200000e8
:102754001020000010200000084000000780000046
:102764000000000000000000000000000000000065
:102774000000000000000000078000000840000086
:10278400102000001020000010200000084000006d
:102794000000000000000000000000000000000035
:1027a400000000000000000000000000078000009e
:1027b400084000001020000010200000102000003d
:1027c400082000001ffe00000000000000000000c0
:1027d400000000000000000000000000078000006e
:1027e4000940000011200000112000001120000009
:1027f40011400000098000000000000000000000fb
:1028040000000000000000000000000000000000c4
:102814000000000000000000002000001ffc000079
:10282400002200000022000000020000000000005e
:102834000000000000000000000000000000000094
:102844000000000000000000078000004840000075
:1028540090200000902000009020000048200000fc
:102864003fe0000000000000000000000000000045
:102874000000000000000000000000001ffe000037
:1028840000400000002000000020000000200000a4
:10289400002000001fc00000000000000000000035
:1028a4000000000000000000000000000000000024
:1028b4000000000000000000000000001fe4000011
:1028c4000000000000000000000000000000000004
:1028d40000000000000000000000000000000000f4
:1028e4000000000080000000802000008020000024
:1028f4007fe4000000000000000000000000000071
:1029040000000000000000000000000000000000c3
:1029140000000000000000001ffe00000100000095
:1029240002800000044000000820000010000000a5
:102934000000000000000000000000000000000093
:102944000000000000000000000000000000000083
:1029540000000000000000001ffe00000000000056
:102964000000000000000000000000000000000063
:1029740000000000000000001fe000000040000014
:102984000020000000200000002000001fc0000004
:102994000040000000200000002000000020000093
:1029a4001fc0000000000000000000000000000044
:1029b400000000001fe000000040000000200000b4
:1029c4000020000000200000002000001fc00000c4
:1029d40000000000000000000000000000000000f3
:1029e40000000000078000000840000010200000e4
:1029f40010200000102000000840000007800000a4
:102a040000000000000000000000000000000000c2
:102a1400000000000000000000000000ffe00000d3
:102a240010400000102000001020000010200000c2
:102a340008400000078000000000000000000000c3
:102a44000000000000000000000000000000000082
:102a54000780000008400000102000001020000043
:102a64001020000008200000ffe00000000000002b
:102a74000000000000000000000000000000000052
:102a840000000000000000001fe000000040000003
:102a940000200000002000000000000000000000f2
:102aa4000000000000000000000000000000000022
:102ab400000000000000000008c000001120000019
:102ac4001120000012200000122000000c40000021
:102ad40000000000000000000000000000000000f2
:102ae40000000000000000000000000000000000e2
:102af400002000000ff8000010200000102000004b
:102b04001020000000000000000000000000000091
:102b140000000000000000000000000000000000b1
:102b24000fe0000010000000100000001000000082
:102b340010000000080000001fe00000000000007a
:102b44000000000000000000000000000000000081
:102b5400000000000060000001800000060000008a
:102b64001800000006000000018000000060000062
:102b74000000000000000000000000000000000051
:102b840000e00000070000001c00000003800000bb
:102b940000600000038000001c000000070000002b
:102ba40000e0000000000000000000000000000041
:102bb40000000000000000000000000010200000e1
:102bc40008400000048000000300000004800000ae
:102bd4000840000010200000000000000000000079
:102be40000000000000000000000000000000000e1
:102bf4000060000001800000c600000038000000f2
:102c040006000000018000000060000000000000d9
:102c140000000000000000000000000000000000b0
:102c24000000000018200000142000001220000002
:102c34001120000010a0000010600000000000003f
:102c44000000000000000000000000000000000080
:102c5400000000000000000001000000010000006e
:102c64007efc000080020000800200008002000060
:102c74000000000000000000000000000000000050
:102c84000000000000000000000000000000000040
:102c94000000000000000000fffe00000000000033
:102ca4000000000000000000000000000000000020
:102cb4000000000000000000000000000000000010
:102cc4008002000080020000800200007efc000000
:102cd40001000000010000000000000000000000ee
:102ce40000000000000000000000000000000000e0
:102cf400038000000040000000400000004000008d
:102d0400008000000100000002000000020000003a
:102d140001c00000000000000000000000000000ee
:102d2400000000000000000000000000000000009f
:102d3400000000000000000000000000000000008f
:102d4400000000000000000000000000000000007f
:102d5400000000000000000000000000014000002e
:102d640003f000000548000009440000114200007f
:102d7400114200001142000008040000000000009d
:102d8400000000000000000000000000000000003f
:102d9400000000000000000000000000000000002f
:102da400000000000000000000000000000000001f
:102db400000000000000000000000000000000000f
:102dc40000000000000000000000000000000000ff
:102dd40000000000000000000000000000000000ef
:102de40000000000000000000000000000000000df
:102df40000000000000000000000000000000000cf
:102e040000000000000000000000000000000000be
:102e140000000000000000000000000000000000ae
:102e2400000000000000000000000000000000009e
:102e3400000000000000000000000000000000008e
:102e4400000000000000000000000000000000007e
:102e54000000000000000000180000000000000056
:102e64000000000000000000180000000000000046
:102e74000000000000000000180000000000000036
:102e8400000000000000000000000000000000003e
:102e9400000000000000000000000000000000002e
:102ea400000000000000000000000000000000001e
:102eb400000000000000000000000000000000000e
:1030d40000000000000000000007000000080000dd
:1030e40000000000000000000000000000000000dc
:1030f40000000000000000000000000000000000cc
:1031040000000000000000000000000000080000b3
:1031140000070000000000000000000000000000a4
:10312400000000000000000000000000000000009b
:103134000000000000000000000000000007000084
:103144000008000000000000000700000008000064
:10315400000000000000000000000000000000006b
:10316400000000000000000000000000000000005b
:103174000008000000070000000000000008000034
:103184000007000000000000000000000000000034
:10319400000000000000000000000000000000002b
:1031a4000000000001c0000003e0000003e0000094
:1031b40003e0000001c00000000000000000000067
:1031c40000000000000000000000000000000000fb
:1031d40000800000008000000080000000800000eb
:1031e40000800000008000000080000000800000db
:1031f40000800000000000000000000000800000cb
:1032040000800000008000000080000000800000ba
:1032140000800000008000000080000000800000aa
:10322400008000000080000000800000008000009a
:10323400000000000000000000000000000000008a
:103414001ec0000001a00000009000000010000089
:1034240000100000002000001fc000000000000089
:103434000000000000000000000000000020000068
:1034440000500000003000001f10000010e00000d9
:103454001000000010000000100000001ff0000029
:103464000000000000000000000000000000000058
:1034740000e0000001500000009000000020000067
:103484001f10000010e000001000000010000000f9
:103494001ff0000000000000000000000000000019
:1034a400000000000000000001c000001e20000019
:1034b4000310000002900000011000000010000042
:1034c400002000001fc000000000000000000000f9
:1034d40000000000000000000000000003c0000025
:1034e4001e2000000310000002a0000001100000d4
:1034f40000100000002000001fc0000000000000b9
:1035040000000000000000000000000000e00000d7
:103514000150000008900000142000000f1000006b
:1035240004e0000004000000080000001000000097
:103534001ff0000000000000000000000000000078
:103544000000000001000000020000000400000070
:103554000800000010200000105000000fe00000e0
:103564000000000000000000000000000000000057
:103574000000000000000000000000000020000027
:1035840000100000021000000510000002100000ee
:10359400042000001fc00000000000000000000024
:1035a4000000000000000000000000000200000015
:1035b400052000001e10000010100000081000007c
:1035c400041000000c20000017c0000008000000d8
:1035d40000000000000000000000000000200000c7
:1035e40000500000003000001f10000010e0000038
:1035f4001000000010000000102000001fd0000088
:1036040000080000000000000000000000000000ae
:1036140000e00000015000000090000000200000c5
:103624001f10000010e00000100000001000000057
:10363400102000001fd0000000080000000000005f
:103644000ec0000015a0000008900000001000004b
:1036540008100000142000000fc000000400000047
:103664000800000008000000100000001ff0000027
:1036740000000000000000000ec0000015a00000c3
:10368400089000000010000000100000002000005e
:103694005fc00000d0000000900000009000000017
:1036a4005ff00000000000000000000008000000bf
:1036b40014c000000fa0000040900000a010000003
:1036c400401000006010000080200000ffc00000d7
:1036d40000000000000000000000000000000000e6
:1036e4000800000054c00000afa00000409000009b
:1036f40060100000901000004010000080200000c6
:10370400ffc00000000000000000000000000000f6
:1037140000000000000000000000000040e0000085
:10372400a4900000ea9000004690000084900000fd
:1037340048900000ff10000000000000000000009e
:103744000000000000e000000150000000900000b4
:10375400002000001f10000008e000000600000028
:103764000180000000400000002000000010000064
:103774001fe000000000000003c000001c20000047
:103784000910000006a0000001100000081000004d
:10379400142000000fc00000040000000800000016
:1037a400100000001ff00000000000000ec0000028
:1037b40015a0000008900000001000000010000098
:1037c400002000001fc000001000000008000000de
:1037d400040000000ff000001400000008000000c6
:1037e400000000000000000003c000001c200000d6
:1037f40009100000069000000310000000100000f3
:10380400002000001fc000000000000000000000b5
:1038140000000000000000000000000003c00000e1
:103824001c2000000910000006a000000310000086
:1038340000100000002000001fc000000000000075
:103844000000000000000000000000000000000074
:10385400000000000ec0000015a000000890000049
:103864000010000000100000002000001fc0000035
:103874000000000000000000000000000000000044
:103884000000000000200000005000001fe00000c5
:103894000c0000000300000000c000000030000025
:1038a400001000001fe00000000000000000000005
:1038b4000000000000000000006000001050000044
:1038c4001fd00000105000001050000010500000e5
:1038d400109000001f100000000000000000000015
:1038e4000000000000000000002000000050000064
:1038f4001fe00000100000000800000008000000a5
:103904000c00000017f00000080000000000000098
:1039140000000000000000000000000000000000a3
:1039240000200000005000001fe000001000000014
:103934001000000010000000100000001ff0000044
:103944000000000000000000000000000000000073
:103954000000000000200000005000001fe00000f4
:103964001000000010000000100000001000000013
:103974001fff000000000000000000000000000025
:1039840000000000000000001fe0000008500000dc
:1039940006200000010000000600000008000000ee
:1039a4001ff0000000000000000000000000000004
:1039b4000000000000000000000000001fe0000004
:1039c400085000000620000001000000060000006e
:1039d400080000001fff00000000000000000000bd
:1039e40000000000000000000000000000200000b3
:1039f400005000001fe000000600000001c00000ad
:103a04000030000001c00000060000001ff00000ac
:103a140000000000000000000000000000000000a2
:103a240000200000005000001fe00000060000001d
:103a340001c000000030000001c0000006000000ca
:103a44001fff000000000000000000000000000054
:103a5400000000000800000014c000000fa00000d7
:103a64000090000000100000001000000010000092
:103a7400002000001fc00000000000000000000043
:103a84000000000000000000000000000000000032
:103a940008200000145000000fe0000004000000a3
:103aa4000800000008000000100000001ff00000e3
:103ab4000000000000000000000000000000000002
:103ac400000000001de00000125000001020000063
:103ad4001000000010000000100000001ff00000a3
:103ae40000000000000000000000000000000000d2
:103af4000000000000000000006000000050000012
:103b040008500000145000000f9000000010000046
:103b140000000000000000000000000000000000a1
:103b24000000000000000000000000000ec00000c3
:103b340015a0000008900000001000000010000014
:103b4400002000007fc00000000000000000000012
:103b54000000000000000000000000000f20000032
:103b64001490000008900000009000000110000074
:103b740006100000082000001fc000000000000024
:103b84000000000000000000000000000800000029
:103b940014c000000fa000000090000000100000fe
:103ba4000010000000100000002000007fc0000092
:103bb4000000000000000000000000000000000001
:103bc4000000000000000000006000000010000081
:103bd4000010000000100000081000001410000085
:103be4000fe00000000000000000000000000000e2
:103bf400000000000000000001c000001e200000c2
:103c040003100000029000000110000000500000aa
:103c1400003000001ff00000000800000000000059
:103c24000000000000000000002000000050000020
:103c34001fe0000010000000108000001140000090
:103c440011800000110000001ff0000001000000be
:103c540000c00000000000000000000000000000a0
:103c64000f20000014900000089000000090000055
:103c74000110000006500000083000001ff0000092
:103c84000008000000000000000000000000000028
:103c940000200000005000001fe0000008000000a9
:103ca400060000000100000000a0000000d0000099
:103cb4001fa0000000000000000000000000000041
:103cc4000000000000200000005000001fe0000081
:103cd4000600000001c000000030000001c4000024
:103ce400060a00001ffe000000040000000200009d
:103cf40000000000000000000000000000000000c0
:103d04001f2000001290000011100000101000008d
:103d14001010000010100000102000001fc0000050
:103d2400000000000000000000000000000000008f
:103d3400000000001e20000015500000125000007a
:103d4400105000001050000010200000106000000f
:103d54001fd0000000080000000000000000000068
:103d640000000000000000000020000000500000df
:103d74000060000000400000002000001ff0000070
:103d8400000000000000000000000000000000002f
:103d9400000000000000000000000000000000001f
:103da4000e7000001ad000001ef000001080000009
:103db4000840000006300000000000000000000081
:103dc400000000000000000000000000058000006a
:103dd4000840000010200000000000001022000035
:103de40010250000084600000584000000020000c1
:103df40000010000000000000000000000000000be
:103e0400000000000020000000100000001000006e
:103e14000010000000100000002000001fc000007f
:103e2400000000000000000000000000000000008e
:103e34000000000005800000084000001020000081
:103e4400000000001020000010240000084a0000b8
:103e540005840000000000000000000000000000d5
:103e64000000000000000000058000000840000081
:103e74001026000000050000102500001025000099
:103e84000845000005860000000000000000000056
:103e94000000000000000000000000000580000099
:103ea4000840000010260000000500001025000056
:103eb40010250000084600000587000000000000ef
:103ec40000000000000000000000000000000000ee
:103ed40005800000084000001026000000050000d6
:103ee400102500001026000008450000058600008b
:103ef40000000000000000000000000000000000be
:103f040000000000058000000840000010260000aa
:103f140000050000102500001027000008440000e0
:103f24000587000000000000000000000000000001
:103f340000000000000000000580000008400000b0
:103f440010200000000000001020000010200000dd
:103f54000840000045800000c00000000000000090
:103f640000000000000000000000000005800000c8
:103f74000840000010200000000000001020000095
:103f840050200000c840000085800000c0000000f0
:103f9400000000000000000000000000000000001d
:103fa4000580000008400000102000000000000010
:103fb4001020000010200000084000004580000090
:103fc40000000000000000000000000000000000ed
:103fd40000000000000000000000000000000000dd
:103fe40000000000000000000000000000000000cd
:103ff40000000000000000000000000000000000bd
:1040040000000000000000000000000000000000ac
:10401400000000000000000000000000000000009c
:10402400000000000000000000000000000000008c
:10403400000000000000000000000000000000007c
:10404400000000000000000000000000000000006c
:10405400000000000000000000000000000000005c
:10406400000000000000000000000000000000004c
:10407400000000000000000000000000000000003c
:10408400000000000000000000000000000000002c
:10409400000000000000000000000000000000001c
:1040a400000000001ffe000010420000104200004b
:1040b4003fff00001042000010620000089c000056
:1040c40007000000000000000000000000000000e5
:1040d40000000000000000000000000000000000dc
:1040e400000000000ff000001400000008000000b1
:1040f40000000000000000000000000000000000bc
:1041040000000000000000000000000000000000ab
:104114000ff0000014000000080000000000000080
:104124000ff0000014000000080000000000000070
:10413400000000000000000000000000000000007b
:10414400000000000006000000050000000500005b
:10415400000500000ff90000140100000800000031
:10416400000000000000000000000000000000004b
:104174000000000000000000000200000005000034
:10418400000300000ff10000140e000008000000fe
:10419400000000000000000000000000000000001b
:1041a4000000000000000000000000000007000004
:1041b4000008000000060000000100000fff0000de
:1041c40014000000080000000000000000000000cf
:1041d40000000000000000000000000000000000db
:1041e400002000000010000000100000001000007b
:1041f40000100000002000007fc00000000000004c
:1042040000000000000000000000000000000000aa
:1042140000e00000015000000090000000200000b9
:1042240000100000001000007fe00000000000000b
:10423400000000000000000000000000000000007a
:10424400000000000580000008400000102000006d
:1042540000020000102500001025000008460000a0
:1042640005850000000000000000000000000000c0
:10427400000000000000000005800000084000006d
:10428400102000000000000010200000102000009a
:104294000840000005870000000000000000000046
:1042a4000000000000000000000000000580000085
:1042b4000840000010200000000000001020000052
:1042c40010200000084700000587000000040000db
:1042d40000020000000100000000000000000000d7
:1042e40005800000084000001020000000070000c6
:1042f4001022000010210000084600000584000080
:1043040000030000000000000000000000000000a6
:10431400000000000580000008400000102000009c
:1043240000000000102000001020000008420000df
:1043340005870000000200000000000000000000eb
:10434400000000000000000005800000084000009c
:1043540010200000000000001020000010200000c9
:10436400084600000586000000020000000100006d
:1043740000000000000000000000000005800000b4
:104384000840000010200000000000001020000081
:1043940010240000084a000005840000000000000a
:1043a4000000000000000000000000000000000009
:1043b40005800000084000001020000000000000fc
:1043c40010200000102000000847000005850000b0
:1043d40000000000000000000000000000000000d9
:1043e40000000000000000000780000008400000fa
:1043f40010200000112000001020000008400000e0
:104404000780000000000000000000000000000021
:104414000000000000000000000000000700000091
:104424000880000010400000104000001040000010
:1044340008800000070000000000000000000000e9
:104444000000000000000000000000000f00000059
:104454001080000012400000154000000e400000d3
:10446400108000000f0000000000000000000000a9
:104474000000000000000000000000000000000038
:104484001ff0000010000000138000001540000021
:104494001240000010800000104000001040000096
:1044a4000f80000000000000000000000000000079
:1044b400000000000f8000001440000008400000cd
:1044c4000180000000400000004000001040000097
:1044d4000f80000000000000000000000000000049
:1044e40000000000070000000880000010400000e9
:1044f40010400000104000000e4000000940000081
:104504000e400000084000001020000000180000c9
:104514000000000000000000070000000880000008
:104524001040000010600000105000000e600000f9
:10453400094000000e400000084000001020000068
:104544000018000000000000000000000008000047
:10455400001000000e60000019400000164000002a
:104564001040000010400000088000000700000018
:104574000000000000000000000000000000000037
:104584000f8000001440000008400000018000007b
:1045940000400000104000001f80000010000000d8
:1045a4000ff0000000000000000000000000000008
:1045b4000000000007000000088000001040000018
:1045c4001c400000044000000840000012400000ad
:1045d400152000000e18000000000000000000007c
:1045e4000000000000000000000000000f80000038
:1045f4001440000008400000018000000e4000004c
:1046040010400000018000000100000000f00000e4
:104614000000000000000000000000000000000096
:104624000020000000500000006000000040000076
:10463400002000001ff00000000000001ff0000038
:10464400000000000000000000000000070000005f
:1046540008800000104000001040000008800000a6
:10466400060000000c000000060000000c00000022
:10467400060000000800000008000000060000001a
:10468400546500006d700000203d00002000000013
:104694006a3d00003078000025780000200000000a
:1046a400693d00002564000020000000256400002e
:1046b4002e250000303200006420000000000000bd
:020000040000fa
:1046c4000200fa00004f780081e0a80080c7b30020
:1046d4002d0207000040eb00f0010700c2010700b3
:1046e4001e407800ed010700bf010700d301070059
:1046f40081e0a9000080fa00000006000000fa0032
:1047040081e0a800870107000080fa00000006008d
:104714000200fa00004f78001e407800df01070015
:10472400b10107000080fa00000006000000fa0052
:10473400c201070081e0a9000080fa000000060021
:104744000000fa00e0cab300ddff070040cdb3006b
:10475400dbff0700f0c7b300d9ff070080cab3002e
:10476400d7ff0700f0c3b300d5ff070030cdb30077
:10477400d3ff07000040eb00d1ff070000c4b300e3
:10478400cfff07000040eb00cdff0700d0c8b30007
:10479400cbff070040c1b300c9ff070010cab30034
:1047a400c7ff070080ccb300c5ff070050cdb3009e
:1047b400c3ff070000c8b300c1ff070000c2b30075
:1047c400bfff07000040eb00bdff0700a0cdb30012
:1047d400bbff070020c1b300b9ff070010c8b30036
:1047e400b7ff070000c0eb00b5ff070090cdb30092
:1047f400b3ff070010cfb300b1ff0700b0cdb30083
:10480400afff070000c4b300adff070040cab30008
:10481400abff070060cab300a9ff0700f0cab300ea
:10482400a7ff07000080fa00000006000200fa005b
:1048340010c2b300a2ff07000040eb00a0ff070076
:10484400f0c7b3009eff070020c2b3009cff07001f
:104854000040eb009aff070070c0b30098ff070008
:10486400a6ff070080c7b300a9ff070000c4b30078
:10487400a7ff07000000eb00000f780003003700db
:104884000040eb00a2ff07001e0fe800f03f2000ed
:104894009e007800808f5000f9ff3600a3ff0700c8
:1048a4000080fa00000006000400fa002047980087
:1048b400314798002e4090000080fb00e20f50002a
:1048c4000b003200e30f500010003200e10f5000e3
:1048d40015003a0020c2b30079ff07000040eb0046
:1048e40077ff070010c0b30075ff070015003700fd
:1048f40020c2b30072ff070020c0b30070ff07009e
:1049040030c0b3006eff07000e00370020c2b300b2
:104914006bff070040c0b30069ff070050c0b3003d
:1049240067ff07000700370020c2b30064ff0700d9
:1049340060c0b30062ff070070c0b30060ff0700ef
:10494400000000000a28ef003e4090000080fb00b9
:104954006d00b90000007800404088000040eb0082
:10496400004f7800050037001e80fb00e1c22000e4
:104974000041eb00827078001e4fe8001e40780072
:10498400f94f5000f8ff36000080fa0000000600de
:104994000200fa00004f780070cdb3009e4078000a
:1049a40080cf500006003600a0cdb3009e407800b2
:1049b40080cf500002003e000080eb00170037005b
:1049c40010cdb3009e40780080cf50000800320024
:1049d40030cdb3009e40780080cf500006003600f2
:1049e40070cdb3009e40780080cf500002003e009e
:1049f40010002000090037001e407800fa4f4000e4
:104a0400050036001e407800f24f400002003e00d0
:104a140020002000010037000000eb000080fa00b5
:104a2400000006000600fa00404798004e4090003f
:104a3400d7ff07000000e0000a003a005040800061
:104a44000000e00007003200404080006d0040009c
:104a540040408800504080000000e800504088003a
:104a640006003700504080000000e00003003a00d8
:104a7400504080000000e8005040880010c2b3009d
:104a84000fff070040408000004078000cff070043
:104a940040408000004078006c40400008ff070060
:104aa40016ff070080c7b30019ff070000c4b30056
:104ab40017ff07004e4090000080fb007a00b90009
:104ac400000078000034b100100798004e409000b8
:104ad400afff07000000e00010003a000040eb00c8
:104ae400004f7800090037001e80fb001e81fb0088
:104af4009e00900081004100a2ce280062c178008f
:104b0400e1c22000827078001e4fe8001e40780049
:104b1400f94f5000f4ff3600470037000040eb0027
:104b240010479800410037000040eb00004f780028
:104b3400380037001e4090000004e0001b003a00db
:104b44001e4090008080fb001e80fb00000040009f
:104b5400808040001e4090000081fb001e009000f9
:104b6400000141001e80fb000000400000004100e5
:104b7400a2ce28006241780000ceb300004161005b
:104b84001e4090008081fb001e80fb00000040005e
:104b940000804100e3c220006340780000417100be
:104ba400e0c2200002f07800190037001e40900097
:104bb4008080fb001e80fb000000400080804000dd
:104bc4001e4090000081fb001e0090000001410087
:104bd4001e80fb000000400000004100a2ce28001f
:104be400624078006f4160001e4090008081fb00ad
:104bf4001e80fb000000400000804100e3c2200052
:104c04006340780000417100e0c2200002f07800a7
:104c14001e4fe8001e407800ec4f5000c5ff3600e0
:104c24001e4090000040e800104798001e4090008d
:104c3400e14f5000bcff36000040eb00004f78000d
:104c4400070037001e80fb00000040000000e80061
:104c5400e1c2200061407800adfe07001e4fe8006d
:104c64001e407800ec4f5000f6ff36000040eb0089
:104c7400004f7800060037001e80fb000000400053
:104c8400e1c2200061407800a1fe07001e4fe80049
:104c94001e407800ec4f5000f7ff3600a3fe0700db
:104ca4000080fa00000006000400fa00004f7800bb
:104cb400110798008040eb001e407800fafe0700c0
:104cc400060037001e0090001040780055ff0700d2
:104cd4001e0090000000e800100798001e009000dd
:104ce400104078000004e000f6ff3a000080fa006b
:104cf400000006000000fa00c922a900c962a90048
:104d04000080fa00000006000000fa00cd62a8004e
:104d1400100020004e010700cd62a9000080fa00b7
:104d2400000006000000fa00c922a900cd62a80014
:104d3400cd22a8002000200045010700cd22a900b3
:104d44001000200042010700cd62a90010002000dd
:104d54003f0107000080fa00000006000000fa008e
:104d6400c922a900cd22a8001000200038010700a4
:104d7400cd62a8001000200035010700cd22a90053
:104d84001000200032010700cd62a90010002000ad
:104d94002f0107000080fa00000006000200fa005c
:104da400100020002a010700cd22a800c922a80073
:104db400cb22a800cd62a800100020002401070027
:104dc400501680004900de0061406000004f78000a
:104dd400cd62a900100020001d0107001e407800cc
:104de4000080fa00000006000000fa001000200015
:104df40017010700cd22a800c922a800cb22a800d1
:104e0400c1ff070010002000110107000080fa0014
:104e1400000006000000fa00c922a900cd22a80063
:104e2400100020000a010700b7ff0700100020004f
:104e3400070107000080fa00000006000000fa00e5
:104e4400c922a900cd62a900cd22a900200020001a
:104e5400ff000700cd62a80010002000fc0007003e
:104e6400cd22a80010002000f90007000080fa00fd
:104e7400000006000200fa00000f7800efff0700b0
:104e84001e0078000000e000020032001e007800de
:104e9400e30007000080fa00000006000400fa00a6
:104ea40020479800c922a90070002000000f780054
:104eb400130037002e4090008080fb001e00780015
:104ec4000088de00004078006140600061406000be
:104ed400614060000080fb00610060004900dd006b
:104ee400611680000190a100010070006016880026
:104ef40010002000d600070083ff07001e0fe90002
:104f04001e0078000000e000eaff3d000080fa0087
:104f1400000006000400fa000040eb00004f780097
:104f2400c922a8000000eb00100798001000370009
:104f34001e40780000404000004f7800cd62a80079
:104f440010002000c2000700501680004900de0057
:104f5400614060001e4f4000cd62a9001000200097
:104f6400bb0007001e0090000000e8001007980036
:104f74001e009000e70f5000edff36001e40780041
:104f84000080fa00000006000200fa00004f7800da
:104f940064ff07001e407800c0ff07007fff070082
:104fa4000080fa00000006000000fa0051ff07002c
:104fb400c942a900c982a800c9a2a9002d63a800fa
:104fc4002d83a800defd070018fe070020342a0008
:104fd4008000780010c0b30033ff07000080fa009f
:104fe400000006000000fa00cc42a8000000000007
:104ff40010168000620060000000e000fcff3a0030
:10500400cc42a900cd42a800cda2a900cb82a80021
:10501400c012200082000700cd42a9002000200019
:105024007f0007000628ef000428ef001500370072
:10503400304080000000400030408800cda2a8002d
:1050440010002000760007005116800000002100a7
:10505400008060000000e000040032003040800066
:105064000000e80030408800cc02a800cda2a900ce
:10507400100020006a000700204080000000e800c3
:105084002040880020408000ef0f5000e8ff3600e9
:10509400304080004300de00304088003040800013
:1050a4007900b9000000780020408800304080007a
:1050b400801f7800a0342a00801f7800c080200060
:1050c4004ced0700e4875700c08020008000780082
:1050d40040c0b300f4fe070020408000801f780029
:1050e40020352a00801f7800c080200041ed070091
:1050f400e4875700c08020008000780030c0b300ef
:10510400e9fe0700214080004006200000017800ed
:10511400110009008280d8008000fd0000017800a1
:1051240020408000c200de00b04721000008b80023
:105134000100d100821f7800801f780080352a008a
:10514400801f7800c08020002aed0700e687570002
:10515400c08020008000780020c0b300d2fe070089
:105164000000000010168000620060000000e000f3
:10517400fcff32000080fa00000006000000fa0084
:10518400c022a800c082a900c802a900c822a900a0
:10519400c842a900c942a8006860a8006a00a80023
:1051a4002c23a8000002200080088800a00f200003
:1051b400600888000621ef0084e0a90094e0a800bc
:1051c40011e1a800c482a800cc42a90060168000a6
:1051d4004200de00614060000080fb00610060006e
:1051e40000004000611680000110a1000100700061
:1051f40060168800601680000000d10061406000e5
:105204000080fb0061006000611680000100a100c5
:1052140001007000601688000080fa00000006009b
:105224000200fa00000f78009e0078001140880008
:105234000008a90000000000004080006100600038
:105244000000e000fcff32000080fa0000000600cd
:105254000400fa00100798000b003700300020000b
:10526400000f780002003700000000001e0fe90064
:105274001e0078000000e000fbff3a001e009000d2
:105284000000e900100798001e0090000000e000f4
:0c529400f2ff3a000080fa000000060063
:020000040000fa
:1052a0000008000004000000000000000c080000de
:1052b00000040000000000000408000004000000da
:1052c000000000002e0c00001a000000000000008a
:1052d000080800000400000000000000480c000066
:1052e0001a00000002000000686a6c00747a4c002a
:1052f000000001000002000004000800001000008f
:10530000000020002b2d2300300000000c0c0000ba
:10531000220000000200000030313200333435003a
:1053200036373800394142004344450046003000da
:10533000313233003435360037383900616263006a
:0c53400064656600000000000000000032
:020000040000fa
:10534c000000fa008bff070015ff070023ff070082
:04535c00feff370019
:020000040000fa
:020000040001f9
:0407f800bff9000045
:020000040000fa
:020000040001f9
:0407fc006a1f000070
:00000001FF
